:060000000A128A153F2FD1
:10000C00F5000630F4007408F00075080A128A1521
:10001C0043270A128A11FF3A013E803E1528080038
:10002C00FA0078080A128A15DD270A128A110030A4
:10003C000A128A11D7210A128A117A08B838F900E3
:10004C0083160313320884007908831380000A1284
:10005C008A115C200A128A1100300A128A15DD27D7
:10006C000A128A110800FA0078080A128A15DD278C
:10007C000A128A1100300A128A11D7210A128A1127
:10008C007A084038F9008316031332088400790883
:10009C00831380000A128A115C200A128A11003024
:1000AC000A128A15DD270A128A11080001300A1279
:1000BC008A11A2210A128A110030F3000030F200DA
:1000CC000030F1000230F0000A128A11D7200A1217
:1000DC008A1100300A128A11A2210A128A110030E8
:1000EC00F3000030F2000030F1000A30F0000A1288
:1000FC008A11D7200A128A110800F401F50186280A
:10010C00701C89288A2890287208F4070318F50AAD
:10011C007308F50701300310F20DF30DFF3E031DBC
:10012C00912801300310F10CF00CFF3E031D9828B0
:10013C0071087004031DA328A4288628A528750817
:10014C00F101F1077408F001F007AC280800FC007D
:10015C007C08F600F7017608F0007708F10006300D
:10016C00F2000030F3000A128A1183200A128A115D
:10017C007009F8007109F900F80A0319F90A7808EE
:10018C00803EFA0079080318013E003EFB00013066
:10019C00FF007B0DFB0CFA0CFF0BCF287A08D6283E
:1001AC0008000030F7000030F6000030F500003099
:1001BC00F400F128E128E22864000130F407003053
:1001CC0003180130F507003003180130F607003032
:1001DC0003180130F70773087702031DFF28720814
:1001EC007602031DFF2871087502031DFF28700895
:1001FC007402031C02290329E0280429080000309A
:10020C00F9000030F8000030F7000030F600242927
:10021C000730F5007D30F400F40B1229F50B122990
:10022C000130F607003003180130F70700300318CF
:10023C000130F807003003180130F9077308790210
:10024C00031D322972087802031D322971087702C6
:10025C00031D322970087602031C352936290E2914
:10026C0037290800F2007208031D3D29502901307E
:10027C00F00083160313310A45290310F00DFF3EDD
:10028C00031D43297008F1003008840071088313A2
:10029C00800464290130F00083160313310A5829B5
:1002AC000310F00DFF3E031D56297008FF3AF100B4
:1002BC003008840071088313800564293008840099
:1002CC000008F0002F088400700880000800F2007D
:1002DC007208031D722985290130F000831603135F
:1002EC00250A7A290310F00DFF3E031D78297008AA
:1002FC00F1002408840071088313800499290130CB
:10030C00F00083160313250A8D290310F00DFF3E10
:10031C00031D8B297008FF3AF10024088400710832
:10032C00831380059929240884000008F000230811
:10033C008400700880000800F2007208031DA729D1
:10034C00BA290130F00083160313220AAF290310D7
:10035C00F00DFF3E031DAD297008F100210884004B
:10036C00710883138004CE290130F0008316031327
:10037C00220AC2290310F00DFF3E031DC02970088C
:10038C00FF3AF10021088400710883138005CE29FF
:10039C00210884000008F000200884007008800008
:1003AC000800F2007208031DDC29EF290130F0006F
:1003BC0083160313280AE4290310F00DFF3E031DD6
:1003CC00E2297008F1002708840071088313800467
:1003DC00032A0130F00083160313280AF7290310AF
:1003EC00F00DFF3E031DF5297008FF3AF1002708B8
:1003FC008400710883138005032A270884000008F1
:10040C00F00026088400700880000800F200F20852
:10041C00003003190130F0007008F2007208031D5F
:10042C00182A2B2A0130F000831603132B0A202ADA
:10043C000310F00DFF3E031D1E2A7008F1002A0860
:10044C0084007108831380043F2A0130F000831666
:10045C0003132B0A332A0310F00DFF3E031D312A20
:10046C007008FF3AF1002A08840071088313800594
:10047C003F2A2A0884000008F0002908840070082C
:10048C0080000800F200F208003003190130F0007F
:10049C007008F2007208031D542A672A0130F0001C
:1004AC00831603132E0A5C2A0310F00DFF3E031D66
:1004BC005A2A7008F1002D088400710883138004F7
:1004CC007B2A0130F000831603132E0A6F2A0310C7
:1004DC00F00DFF3E031D6D2A7008FF3AF1002D0848
:1004EC0084007108831380057B2A2D088400000882
:1004FC00F0002C088400700880000800AE2A8312DB
:10050C0003134208C5004508B2004308C60046085C
:10051C00B3004408C7004708B4004108FF00400876
:10052C0084000A168A1500250A128A110A128A11E9
:10053C00A2260A128A11013083120313C007031872
:10054C00C10A0030C1070630C5004508C307AE2AF2
:10055C00831203134108FF00400884000A168A1511
:10056C0000250A128A110038031DBD2ABE2A852ACD
:10057C00BF2A0800FD0108307D02031CC62AC72AC9
:10058C00C92AFC2AFC2A0330FB007B08F8007D08F2
:10059C000A128A1116200A128A11FC0140307C02C0
:1005AC00031CD92ADA2ADC2AF12AF12A0330FB00AF
:1005BC007B08F80000300A128A15BB270A128A1130
:1005CC000130FB007B08FC0740307C02031CEF2A47
:1005DC00F02ADC2AF12A0130FB007B08FD070830E9
:1005EC007D02031CFA2AFB2AC92AFC2A0800831262
:1005FC000313A80020080A128A155B270A128A1115
:10060C0083120313A2002208A900A108031D0F2BBB
:10061C00102B292B0130A2002803FF3A073E013E84
:10062C00192B0310A20DFF3E031D172B2208FF3AB6
:10063C00A3002308A9052908A400A5012408A600E5
:10064C002508A700412B0130A2002803FF3A073EE2
:10065C00013E322B0310A20DFF3E031D302B22084E
:10066C00A3002308A9042908A400A5012408A600B6
:10067C002508A700412B2608432B0800A030840036
:10068C00203083120313B4000408B5001430B600F4
:10069C003408840083130008B700B40A35088400BA
:1006AC0037088000B50AB60B4E2B00300A128A119F
:1006BC0038210A128A1100300A128A116D210A128D
:1006CC008A118316031333088400831380010130CD
:1006DC000A128A1138210A128A110030F3000030F4
:1006EC00F2000030F1000130F0000A128A110521ED
:1006FC000A128A110A128A159A270A128A110A12E8
:10070C008A11C0220A128A110800FF30F8008316E1
:10071C0003133308840078088313800001300A1215
:10072C008A116D210A128A1101300A128A11A22132
:10073C000A128A110030F3000030F2000030F10090
:10074C000230F0000A128A11D7200A128A110030E6
:10075C000A128A11A2210A128A110030F300003009
:10076C00F2000030F1000230F0000A128A11D7209A
:10077C000A128A1101300A128A11A2210A128A1154
:10078C000030F3000030F2000030F1000530F000D2
:10079C000A128A11D7200A128A11831603133208FF
:1007AC00840083130008F8007808F90000300A125E
:1007BC008A11A2210A128A1100300A128A116D21A3
:1007CC000A128A11831603133308840083138001E1
:1007DC000030F3000030F2000030F1000F30F00078
:1007EC000A128A11D7200A128A117908FD2B0800E7
:1007FC0083120313B00040302A020318062C072C76
:10080C000B2CB1010314B10D152C2A08C03EAC0001
:10081C002C08AA000230AC002C08B100152C3008B2
:10082C00AC0003300310AC0CFF3E031D182C2C083D
:10083C00AD002D08AF003108AC002C08F8002F08D3
:10084C000A128A1116200A128A11831203132F0816
:10085C00AC0003300310AC0DFF3E031D302C3003F5
:10086C00FF3A2C07083EAD002D08B0003108AC0053
:10087C002C08F8002A080A128A1139200A128A1147
:10088C00831203133108AC002C08A0002B08AD0018
:10089C002D08A10030080A128A11FD220A128A11B1
:1008AC0083120313AE002E08B0003108AC002C08E4
:1008BC00F8002A080A128A1139200A128A118312A6
:1008CC0003133108AC002C08F80030080A128A1502
:1008DC00BB270A128A11080083120313A301031405
:1008EC00A30D03302302031C7C2C7D2C7F2CED2CC0
:1008FC00ED2CA10108302102031C852C862C882CA0
:10090C00E22CE22C2308FD007D08F80021080A12D5
:10091C008A1116200A128A1183120313A201403085
:10092C002202031C9A2C9B2C9D2CD72CD72C2308F1
:10093C00FD007D08F80022080A128A1139200A12DB
:10094C008A118312031323080A128A155B270A12D1
:10095C008A11FD007D0883120313A0002308FD00FB
:10096C007D08F80022080A128A1139200A128A110D
:10097C00831203132308FD007D08F80020090A12D6
:10098C008A15BB270A128A110130FD007D088312DB
:10099C000313A20740302202031CD52CD62C9D2C0D
:1009AC00D72C0130FD007D08A10708302102031C63
:1009BC00E02CE12C882CE22C0130FD007D08A307F3
:1009CC0003302302031CEB2CEC2C7F2CED2C0800A9
:1009DC0083120313BD016B2D3508B9003908BF0014
:1009EC00BE015B2D8030B9003908C100C20108304E
:1009FC004202031C022D032D052D502D502D3308C2
:100A0C00FF00320884000A168A1500250A128A1182
:100A1C004105B9003908C000B608031D162D172D65
:100A2C00222DC008003003190130B900BA01390871
:100A3C00BB003A08BC002A2D4008B900BA0139089D
:100A4C00BB003A08BC002A2D3F08B9003908AA009F
:100A5C003B08BA003A08AB0034080A128A11FE238C
:100A6C000A128A11013083120313B9003908BF0727
:100A7C004108B9000310390CBA003A08C100013022
:100A8C00B9003908C20708304202031C4E2D4F2D05
:100A9C00052D502D0130B2070318B30A0030B307EF
:100AAC000130B9003908BE075B2D38083E02031C23
:100ABC00602D612DF82C622D0130B9003908B40776
:100ACC000130B9003908BD076B2D37083D02031CF6
:100ADC00702D712DF22C722D080083120313CC0192
:100AEC008316031385018601870183120313850185
:100AFC00860187010630C8004808CD000730C800C1
:100B0C004808CF004C30C8004808CE000630C8005A
:100B1C004808D0000630C8004808D2004C30C80045
:100B2C004808D1000630C8004808D3000530C8007A
:100B3C004808D5004C30C8004808D4000630C8001E
:100B4C004808D6000330C8004808D8004C30C8000C
:100B5C004808D7000630C8004808D9000430C8003F
:100B6C004808DB004C30C8004808DA000630C800E2
:100B7C004808DC000230C8004808DE004C30C800D1
:100B8C004808DD000730C8004808DF008730C8007F
:100B9C004808E000203084004D30C8000408C9002B
:100BAC001430CA004808840083130008CB00C80A1C
:100BBC00490884004B088000C90ACA0BD82D0A12B8
:100BCC008A1144230A128A112E3083120313C00097
:100BDC009F30C100C2010314C20D2E30F0009F30B3
:100BEC00F1000A128A1579270A128A110A128A113F
:100BFC00AD200A128A1183120313C8004808C300DF
:100C0C00C4010314C40D0A128A1184220A128A1117
:100C1C00413083120313C0009F30C1000930C8005B
:100C2C004808C2004130F0009F30F1000A128A15CA
:100C3C0079270A128A110A128A11AD200A128A1116
:100C4C0083120313C9004908C300C4010314C40D63
:100C5C000A128A1184220A128A117F30831203131A
:100C6C00B2009E30B3001130C8004808B4003330D5
:100C7C00C9004908B500B6010314B60D2330CA00EB
:100C8C004A08B7000530CB004B08B8000A128A118D
:100C9C00EE240A128A115E3083120313C0009F30B7
:100CAC00C1003930C8004808C200C3010314C30D89
:100CBC00C4010314C40D0A128A1184220A128A1167
:100CCC00533083120313C0009F30C1003930C80069
:100CDC004808C2005330F0009F30F1000A128A1508
:100CEC0079270A128A110A128A1106200A128A110D
:100CFC0083120313C9004908C300C4010314C40DB3
:100D0C000A128A1184220A128A110030F300003070
:100D1C00F2000730F100D030F0000A128A110521E0
:100D2C000A128A110A128A1172240A128A119E2E30
:100D3C009E2E0A128A11002883120313BF00303032
:100D4C003F02031CAA2EAB2ECC2E3A303F020318C6
:100D5C00B02EB12ECC2E3F08D03EF000FF30031841
:100D6C000030F1000530F2000030F3000A128A1155
:100D7C0083200A128A117008043E83120313BD00EB
:100D8C0071080318013E013EBE00752F41303F0231
:100D9C00031CD12ED22EF12E5B303F020318D72E1E
:100DAC00D82EF12E3F08BF3EF000FF300318003064
:100DBC00F1000530F2000030F3000A128A11832092
:100DCC000A128A11710883120313BE01BE07700840
:100DDC00BD01BD07752F61303F02031CF62EF72EA7
:100DEC004F2F7B303F020318FC2EFD2E4F2F3F0858
:100DFC00B93EF000FF3003180030F1000530F2006E
:100E0C000030F3000A128A1183200A128A11710829
:100E1C0083120313BE01BE077008BD01BD07752FF9
:100E2C004F2F3630BD000130BE00752F3B30BD005A
:100E3C000130BE00752F4030BD000130BE00752F53
:100E4C004530BD000130BE00752F4A30BD00013069
:100E5C00BE00752F4F30BD000130BE00752F5430D1
:100E6C00BD000130BE00752F5930BD000130BE00F1
:100E7C00752F5E30BD000130BE00752F6330BD0094
:100E8C000130BE00752F6830BD000130BE00752FDB
:100E9C00752F3F08203A03193A2F013A03191C2FDA
:100EAC00023A0319302F063A0319492F0F3A031946
:100EBC00352F063A0319262F023A0319212F013A2E
:100ECC000319442F153A03192B2F053A0319172F21
:100EDC00603A03193F2F752F752F752F752F330817
:100EEC00B5003508BC00EC2F803083120313B5001D
:100EFC003508BA003208B5003508BB00CC2F9D3040
:100F0C00831203133E07FF0012303D0784000318C1
:100F1C00FF0A0A168A1500250A128A113A05B5002D
:100F2C003508B900B408031D9C2F9D2FA82FB908B4
:100F3C00003003190130B500B6013508B70036088A
:100F4C00B800B02F3908B500B6013508B70036081F
:100F5C00B800B02F3C08B5003508AA003708B60019
:100F6C003608AB003B080A128A11FE230A128A11BA
:100F7C00831203133A08B5000310350CB60036087B
:100F8C00BA000130B5003508BB07CC2F3208083E3B
:100F9C00B500003003180130B6003608803A803CAA
:100FAC00031DDA2F35083B02031CDD2FDE2F852FA6
:100FBC00DF2F013083120313BD070318BE0A003064
:100FCC00BE070130B5003508BC07EC2F3308053ED1
:100FDC00B500003003180130B6003608803A803C6A
:100FEC00031DFA2F35083C02031CFD2FFE2F7A2F10
:040FFC00FF2F0800BB
:101E7E0083010A128A11732DF300F201731C482F8D
:101E8E00492F4E2F7008F1007108F2074E2F0310E4
:101E9E00F00D0310F30CF308031D562F572F452F8B
:101EAE00582F72085A2F0800FB007B080A128A1559
:101EBE00DD270A128A1501300A128A11D7210A1259
:101ECE008A150A128A118B230A128A15FA007A08C9
:101EDE00FC0000300A128A15DD270A128A157C08CA
:101EEE00782F0800F301862F0130F2007208F307F5
:101EFE000130F0070318F10A0030F107862F710840
:101F0E0083120313FF00700884000A168A15002539
:101F1E000A128A150038031D952F962F7B2F972FA7
:101F2E007308992F080003300A128A15DD270A124A
:101F3E008A1500300A128A11D7210A128A153F30EB
:101F4E00F800831603133208840078088313800088
:101F5E000A128A115C200A128A1500300A128A159A
:101F6E00DD270A128A150800FA0078080A128A1567
:101F7E00DD270A128A1501300A128A11D7210A1298
:101F8E008A157A08F900831603133208840079083B
:101F9E00831380000A128A115C200A128A150030FF
:101FAE000A128A15DD270A128A150800F400F301B9
:101FBE000314F30D7408013A0319E62FE72FEF2FE0
:101FCE007408033A0319EC2FED2FEF2FF301EF2FC7
:101FDE0073080A128A110C220A128A150230740230
:101FEE000030031801300A128A1148220A128A158B
:021FFE000800D9
:103A0000FF1B0A2D83137F1883170008840A0319EC
:103A1000FF0A08007F087F398A000408840A031916
:103A2000FF0A82007E348834883488347E34FE3441
:103A30009234923492346C347C34823482348234C2
:103A40004434FE348234823444343834FE34923484
:103A5000923492348234FE349034903490348034F2
:103A60007C348234923492345E34FE341034103418
:103A70001034FE3400348234FE3482340034043492
:103A800002348234FC348034FE341034283444341C
:103A90008234FE340234023402340234FE344034C0
:103AA00030344034FE34FE34203410340834FE34D4
:103AB0007C348234823482347C34FE3490349034CA
:103AC000903460347C3482348A3484347A34FE34E2
:103AD0009034983494346234623492349234923410
:103AE0008C3480348034FE3480348034FC340234AE
:103AF00002340234FC34F834043402340434F8342C
:103B0000FC3402341C340234FC34C63428341034FF
:103B10002834C634E03410340E341034E0348634A3
:103B20008A349234A234C23404342A342A342A34F3
:103B30001E34FE341234223422341C341C34223419
:103B40002234223404341C34223422341234FE341D
:103B50001C342A342A342A34183410347E349034F5
:103B60008034403430344A344A344A347C34FE346D
:103B70001034203420341E3400342234BE34023455
:103B80000034043402342234BC340034FE340834AB
:103B900014342234003400348234FE3402340034CD
:103BA0003E342034183420341E343E341034203453
:103BB00020341E341C342234223422341C343E344B
:103BC0002834283428341034103428342834183455
:103BD0003E343E34103420342034103412342A342D
:103BE0002A342A3404342034FC3422340234043499
:103BF0003C340234023404343E3438340434023465
:103C0000043438343C3402340C3402343C3422342E
:103C1000143408341434223430340A340A340A3464
:103C20003C34223426342A34323422347C348A34EC
:103C30009234A2347C3400344234FE3402340034F2
:103C4000423486348A349234623484348234A234E6
:103C5000D2348C34183428344834FE340834E434F4
:103C6000A234A234A2349C343C3452349234923480
:103C70000C3480348E349034A034C0346C3492349C
:103C8000923492346C346034923492349434783474
:103C9000403480348A349034603400340034F23458
:103CA00000340034003400340234003400340A3468
:103CB0000C34003400340034003400342434003434
:103CC00000342834FE342834FE34283414340834C4
:103CD0003E340834143400340034003400340034EA
:103CE000023402340234023402340434083410340E
:103CF00020344034C434C834103426344634FF34BD
:103D0000FF34FF34FF34F0348034003400340034A6
:103D10001034813477342534DC3410348334553412
:103D20006D345434103481345534253454341034C3
:103D3000813477342534DC3410348034003400345A
:103D400000341034803400340034003410348034B3
:103D50000034003400341034803400340034003433
:103D6000103480340034003400341034813477341B
:103D700072345C341034833455345634D4341034B3
:103D8000813455345234543410348134773472349D
:103D90005C34103480340034003400341034803407
:103DA00000340034003410348034003400340034E3
:103DB000103480340034003400341034FF34FF34C5
:103DC000FF34FF34F03400340034C03400340034A5
:103DD00000340034C0340034003400340134E034A2
:103DE0000034003400340034003400340034003433
:103DF0000034003400340034003400340034003423
:103E000000340134FF34FF34F03400340134003422
:103E100000341034003401345534553450340034F7
:103E200001340034003410340034013400340034E0
:103E300010340034013400340034103400340134C0
:103E40002A34AA349034003401340034003410345D
:103E500000340134FF34FF34F0340034443472341D
:103E6000693476346534723420344C344334443409
:103E700020346734723461346634693463346F34A7
:103E800000344C3465346F346E34613472346434CD
:103E90006F342034463465346C347A346D34613494
:103EA0006E346E34003432343034323432342F34A1
:103EB000303437342F3431343234003456343134E2
:063EC0002E343034003402
:04400E0022EBFFFEA4
:00000001FF
